:020000044000BA
:10000000130101FE232E8100130401022326A4FE06
:100010008327C4FE23A007008327C4FE23A4070070
:10002000130000000324C1011301010267800000D6
:10003000130101FE232E8100130401022326A4FED6
:10004000130000000324C1011301010267800000B6
:10005000130101FE232E8100130401022326A4FEB6
:100060008327C4FE23A207008327C4FE1307F0FFE3
:1000700023A0E700130000000324C10113010102C3
:1000800067800000130101FE232E8100130401028A
:100090002326A4FE8327C4FE83A7470093D7070126
:1000A00093F7F70F138507000324C1011301010221
:1000B00067800000130101FE232E8100130401025A
:1000C0002326A4FE8327C4FE83A7470093D7870176
:1000D000138507000324C10113010102678000009A
:1000E000130101FE232E1100232C810013040102B1
:1000F0002326A4FE2324B4FE130000000325C4FE1F
:10010000EFF05FF893070500E38A07FE8327C4FE3C
:10011000032784FE23A0E700130000008320C10111
:10012000032481011301010267800000130101FE15
:10013000232E8100130401022326A4FE2324B4FEEF
:10014000832784FE03A7C7008327C4FE23A4E700F8
:10015000832784FE83A707001387F7FF832784FE86
:1001600083A74700939787003367F700832784FEB0
:1001700083A78700939707013367F7008327C4FE9F
:1001800023A6E700130000000324C10113010102AC
:1001900067800000130101FE232E1100232C810033
:1001A000130401022326A4FE130000000325C4FE4D
:1001B000EFF05FF093070500E38A07FE8327C4FE94
:1001C00083A7070093F7F70F138507008320C1016A
:1001D000032481011301010267800000130101FE65
:1001E000232E8100130401022326A4FE8327C4FECC
:1001F00083A7070093F72700B337F00093F7F70FB3
:10020000138507000324C101130101026780000068
:10021000130101FE232E8100130401022326A4FEF4
:100220008327C4FE1307100023A0E700130000007B
:100230000324C1011301010267800000130101FEC4
:10024000232E1100232C8100130401022326A4FE77
:100250008327C4FE23A00700130000000325C4FE6B
:10026000EFF0DFF793070500E39A07FE13000000A5
:10027000130000008320C101032481011301010246
:1002800067800000130101FE232E1100232C810042
:10029000130401022326A4FE6F0000028327C4FE7C
:1002A000138717002326E4FE83C707009385070002
:1002B000370501F0EFF0DFE28327C4FE83C70700B4
:1002C000E39E07FC13000000130000008320C1011F
:1002D000032481011301010267800000130101FE64
:1002E000232E1100232C81001304010293078000A8
:1002F0002320F4FE232204FE232404FE930750034C
:100300002326F4FE930704FE93850700370501F0CA
:10031000EFF0DFE1B72700401385476DEFF09FF660
:10032000B72700401385076FEFF0DFF5EF00000BF4
:1003300093070000138507008320C1010324810176
:100340001301010267800000130101FF23268100D1
:1003500013040101130000000324C1001301010173
:1003600067800000130101FD23261102232481026E
:1003700013040103232EA4FC930700012307F4FEBA
:10038000A30704FE6F00C0028347F4FE0327C4FDE9
:10039000B307F70083C7070093850700370501F00F
:1003A000EF0000248347F4FE93871700A307F4FEB1
:1003B0000347F4FE8347E4FEE368F7FCB7270040F9
:1003C00013850770EFF01FEC130000008320C102BB
:1003D000032481021301010367800000130101F26D
:1003E000232E110C232C810C1304010EB72700407F
:1003F0009387C77303A6070083A6470003A7870058
:1004000083A7C7002320C4FE2322D4FE2324E4FEB6
:100410002326F4FEB72700409387C77403A607007E
:1004200083A6470003A7870083A7C7002328C4FC2F
:10043000232AD4FC232CE4FC232EF4FCB727004011
:1004400013854770EFF01FE4930704FD1385070041
:10045000EFF05FF1B727004013854771EFF09FE29F
:10046000930704FE13850700EFF0DFEFB727004086
:1004700013850772EFF01FE1130704FE930704F2E0
:100480009305070013850700EF009059130704FD3B
:10049000930704F29305070013850700EF20001669
:1004A000930704FD13850700EFF0DFEBB72700404B
:1004B00013850773EFF01FDD130000008320C10DCB
:1004C0000324810D1301010E67800000130101F167
:1004D0002326110E2324810E1304010FB727004099
:1004E0009387C77303A6070083A6470003A7870067
:1004F00083A7C7002320C4FE2322D4FE2324E4FEC6
:100500002326F4FEB72700409387477803A6070009
:1005100083A6470003A7870083A7C7002328C4FC3E
:10052000232AD4FC232CE4FC232EF4FCB727004020
:100530009387C77403A6070083A6470003A7870015
:1005400083A7C7002320C4FC2322D4FC2324E4FC7B
:100550002326F4FC130704FE930704F19305070018
:1005600013850700EF00D04B130704FC930704F139
:100570009305070013850700EF204008B7270040C8
:100580001385C775EFF01FD0130704FC930704FD14
:10059000130600019305070013850700EF0040597B
:1005A00093070500639C0700B72700401385C776B3
:1005B000EFF05FCD930700006F004001B7270040C8
:1005C00013858777EFF01FCC930710001385070082
:1005D0008320C10E0324810E1301010F67800000E8
:1005E000130101FD232611022324810213040103B8
:1005F000232EA4FC93870500A30DF4FC9307200091
:100600002324F4FE832784FE9387F7FF2326F4FE3A
:100610006F0080050347B4FD8327C4FE939727002E
:10062000B357F74093F7F70F93F7F700A303F4FEE0
:10063000034774FE9307900063E8E700834774FE66
:10064000938707036F00C000834774FE9387770585
:1006500093850700370501F0EFF09FA88327C4FEBC
:100660009387F7FF2326F4FE8327C4FEE3D407FA1B
:1006700013000000130000008320C1020324810244
:100680001301010367800000130101F12326110EFD
:100690002324810E2322910E1304010FB72700405B
:1006A0009387C77303A6070083A6470003A78700A5
:1006B00083A7C700232EC4FC2320D4FE2322E4FEFC
:1006C0002324F4FEB727004013854779EFF09FBB42
:1006D000A30704FE6F00C0048344F4FE370501F055
:1006E000EFF05FAB9307050013870700938704FFC4
:1006F000B3878700238EE7FC8347F4FE938707FFC9
:10070000B387870083C7C7FD93850700370501F0CE
:10071000EFF01FED8347F4FE93871700A307F4FE65
:100720000347F4FE9307F000E3F8E7FAB727004029
:1007300013854770EFF01FB59307C4FC13850700BE
:10074000EFF05FC2B727004013854771EFF09FB30A
:100750009307C4FD13850700EFF0DFC0B727004003
:1007600013850772EFF01FB21307C4FD9307C4F19E
:100770009305070013850700EF00902A1307C4FCB8
:100780009307C4F19305070013850700EF10106766
:100790009307C4FC13850700EFF0DFBCB7270040C8
:1007A0001385877AEFF01FAE130000008320C10E7F
:1007B0000324810E8324410E1301010F6780000082
:1007C000130101F92326810613040107232EA4F83F
:1007D000232CB4F8232AC4F88327C4F92326F4FE73
:1007E000832784F92324F4FE0327C4FE832744F9D6
:1007F000B307F700232EF4FC93073000232CF4FCFE
:100800000327C4FE832784FE3347F700832784FD34
:10081000B377F700B337F00093F7F70F639A070049
:10082000832744F993B7470093F7F70F63880706C8
:10083000130000006F008000130000000327C4FEB7
:100840008327C4FDB337F70093F7F70F63840704DA
:100850006F008003832784FE83C70700A303F4FA95
:100860008327C4FE938717002326F4FE832784FE84
:10087000938717002324F4FE8327C4FE9387F7FF92
:10088000034774FA2380E7000327C4FE8327C4FDCF
:10089000E362F7FC8327C4F96F0080280327C4FEB6
:1008A000832784FDB377F700B337F00093F7F70F92
:1008B000638607046F008003832784FE83C70700D5
:1008C000A30BF4FC8327C4FE938717002326F4FEB2
:1008D000832784FE938717002324F4FE8327C4FE16
:1008E0009387F7FF034774FD2380E7000327C4FEC7
:1008F000832784FDB377F700E39007FC8327C4FECA
:100900002322F4FE832784FE2320F4FE832784FD24
:1009100013C7F7FF8327C4FDB377F7002328F4FC40
:10092000832704FD938707FE032744FEB337F700B0
:1009300093F7F70F638C071A6F00C016832704FE26
:10094000138747002320E4FE83A707002326F4FC37
:10095000832704FE138747002320E4FE83A70700B4
:100960002324F4FC832704FE138747002320E4FE9E
:1009700083A707002322F4FC832704FE1387470084
:100980002320E4FE83A707002320F4FC832704FE32
:10099000138747002320E4FE83A70700232EF4FAE1
:1009A000832704FE138747002320E4FE83A7070064
:1009B000232CF4FA832704FE138747002320E4FE48
:1009C00083A70700232AF4FA832704FE138747002E
:1009D0002320E4FE83A707002328F4FA832704FEDC
:1009E000138747002320E4FE83A707002326F4FA99
:1009F000832744FE138747002322E4FE0327C4FC19
:100A000023A0E700832744FE138747002322E4FE48
:100A1000032784FC23A0E700832744FE13874700B5
:100A20002322E4FE032744FC23A0E700832744FE9F
:100A3000138747002322E4FE032704FC23A0E700DA
:100A4000832744FE138747002322E4FE0327C4FBC9
:100A500023A0E700832744FE138747002322E4FEF8
:100A6000032784FB23A0E700832744FE1387470066
:100A70002322E4FE032744FB23A0E700832744FE50
:100A8000138747002322E4FE032704FB23A0E7008B
:100A9000832744FE138747002322E4FE0327C4FA7A
:100AA00023A0E700832704FD938707FE032744FE66
:100AB000E366F7E86F008003832704FE83A707003F
:100AC0002324F4FA832744FE938747002322F4FE6D
:100AD000832704FE938747002320F4FE832744FEE8
:100AE0009387C7FF032784FA23A0E700032744FE68
:100AF000832704FDE362F7FC832744FE2326F4FEEC
:100B0000832704FE2324F4FE0327C4FE8327C4FDA9
:100B1000B337F70093F7F70FE39007D28327C4F9B1
:100B2000138507000324C106130101076780000035
:100B3000130101FD2326810213040103232EA4FCCB
:100B4000232CB4FC232AC4FC0327C4FD832784FD83
:100B5000B367F70093F737006390070E8327C4FD50
:100B60002326F4FE832784FD2324F4FE832744FDFB
:100B700093F7C7FF0327C4FEB307F7002322F4FE51
:100B80006F0000038327C4FE03A70700832784FEAA
:100B900083A707006316F7028327C4FE93874700E5
:100BA0002326F4FE832784FE938747002324F4FE44
:100BB0000327C4FE832744FEE366F7FC6F00800032
:100BC000130000000327C4FE8327C4FDB307F740CA
:100BD00013870700832744FDB387E740232AF4FCEB
:100BE0008327C4FE232EF4FC832784FE232CF4FCED
:100BF0006F0080048327C4FD13871700232EE4FCB5
:100C000083C70700A301F4FE832784FD1387170021
:100C1000232CE4FC83C707002301F4FE034734FEC2
:100C2000834724FE630AF700034734FE834724FE0C
:100C3000B307F7406F008001832744FD1387F7FF58
:100C4000232AE4FCE39807FA9307000013850700C2
:100C50000324C1021301010367800000130101FE98
:100C6000232E8100130401022326A4FE8327C4FE41
:100C700083A7470093D7070193F7F70F1385070062
:100C80000324C1011301010267800000130101FE6A
:100C9000232E8100130401022326A4FE8327C4FE11
:100CA00083A7470093D78701138507000324C10159
:100CB0001301010267800000130101FE232E1100C1
:100CC000232C8100130401022326A4FE2324B4FE56
:100CD000130000000325C4FEEFF05FF89307050042
:100CE000E38A07FE8327C4FE032784FE23A0E700D0
:100CF000130000008320C1010324810113010102BC
:100D000067800000130101FE232E810013040102FD
:100D10002326A4FE2324B4FE832784FE03A7C70052
:100D20008327C4FE23A4E700832784FE83A707004C
:100D30001387F7FF832784FE83A7470093978700D5
:100D40003367F700832784FE83A787009397070103
:100D50003367F7008327C4FE23A6E70013000000D3
:100D60000324C1011301010267800000130101FE89
:100D7000232E1100232C8100130401022326A4FE3C
:100D8000130000000325C4FEEFF05FF09307050099
:100D9000E38A07FE8327C4FE83A7070093F7F70FB4
:100DA000138507008320C10103248101130101027F
:100DB00067800000130101FE232E8100130401024D
:100DC0002326A4FE8327C4FE23A007008327C4FE96
:100DD00023A40700130000000324C1011301010232
:100DE00067800000130101FE232E8100130401021D
:100DF0002326A4FE130000000324C10113010102F5
:100E000067800000130101FE232E810013040102FC
:100E10002326A4FE8327C4FE23A207008327C4FE43
:100E20001307F0FF23A0E700130000000324C10113
:100E30001301010267800000130101FE232E8100CF
:100E4000130401022326A4FE8327C4FE83A7070000
:100E500093F72700B337F00093F7F70F13850700D8
:100E60000324C1011301010267800000130101FE88
:100E7000232E8100130401022326A4FE8327C4FE2F
:100E80001307100023A0E700130000000324C10192
:100E90001301010267800000130101FE232E1100DF
:100EA000232C8100130401022326A4FE8327C4FE01
:100EB00023A00700130000000325C4FEEFF0DFF7B6
:100EC00093070500E39A07FE1300000013000000DB
:100ED0008320C10103248101130101026780000006
:100EE000130101FC232E8102130401042326A4FC18
:100EF0002324B4FC232604FE6F00800C8327C4FE49
:100F000093972700032784FC3307F7008327C4FE49
:100F1000939727008326C4FCB387F6000347070096
:100F20002380E7008327C4FE939727009387170049
:100F3000032784FC3307F7008327C4FE9397270019
:100F4000938717008326C4FCB387F6000347070086
:100F50002380E7008327C4FE939727009387270009
:100F6000032784FC3307F7008327C4FE93972700E9
:100F7000938727008326C4FCB387F6000347070046
:100F80002380E7008327C4FE9397270093873700C9
:100F9000032784FC3307F7008327C4FE93972700B9
:100FA000938737008326C4FCB387F6000347070006
:100FB0002380E7008327C4FE938717002326F4FECF
:100FC0000327C4FE93073000E3FAE7F293074000DB
:100FD0002326F4FE6F00C0228327C4FE9387F7FF09
:100FE000939727002324F4FE0327C4FC832784FE61
:100FF000B307F70083C70700230EF4FC832784FEA2
:10100000938717000327C4FCB307F70083C70700C3
:10101000A30EF4FC832784FE938727000327C4FCD8
:10102000B307F70083C70700230FF4FC832784FE70
:10103000938737000327C4FCB307F70083C7070073
:10104000A30FF4FC8327C4FE93F737006392070CC9
:101050008347C4FDA303F4FE8347D4FD230EF4FCB1
:101060008347E4FDA30EF4FC8347F4FD230FF4FC57
:10107000834774FEA30FF4FC8347C4FD1387070066
:10108000B73700409387C780B387E70083C707005F
:10109000230EF4FC8347D4FD13870700B7370040C5
:1010A0009387C780B387E70083C70700A30EF4FCCC
:1010B0008347E4FD13870700B73700409387C78055
:1010C000B387E70083C70700230FF4FC8347F4FDD1
:1010D00013870700B73700409387C780B387E700BF
:1010E00083C70700A30FF4FC0347C4FD8327C4FE96
:1010F00093D72700B73600409386C6A0B387F60083
:1011000083C70700B347F70093F7F70F230EF4FCEC
:101110008327C4FE939727002320F4FE8327C4FE71
:101120009387C7FF939727002324F4FE0327C4FC6B
:10113000832784FEB307F70083C607000347C4FD77
:101140000326C4FC832704FEB307F60033C7E6007A
:101150001377F70F2380E700832784FE9387170018
:101160000327C4FCB307F70083C607000347D4FD79
:10117000832704FE938717000326C4FCB307F600F9
:1011800033C7E6001377F70F2380E700832784FE39
:10119000938727000327C4FCB307F70083C6070023
:1011A0000347E4FD832704FE938727000326C4FC3E
:1011B000B307F60033C7E6001377F70F2380E70085
:1011C000832784FE938737000327C4FCB307F70007
:1011D00083C607000347F4FD832704FE9387370087
:1011E0000326C4FCB307F60033C7E6001377F70FF6
:1011F0002380E7008327C4FE938717002326F4FE8D
:101200000327C4FE9307B002E3F8E7DC13000000F5
:10121000130000000324C1031301010467800000D0
:10122000130101FE232E1100232C8100130401025F
:101230002326A4FE2324B4FE8327C4FE832584FE34
:1012400013850700EFF0DFC9130000008320C10100
:10125000032481011301010267800000130101FDD5
:10126000232681021304010393070500232CB4FCF9
:10127000232AC4FCA30FF4FCA30704FE6F00C009DB
:10128000230704FE6F00C0070347F4FE8347E4FE14
:10129000832684FD131727003387E600B307F70082
:1012A00003C607008347F4FD139727008347F4FE26
:1012B000B307F700139727008347E4FEB307F7004F
:1012C00013870700832744FDB387E70003C70700A0
:1012D0008346F4FE8347E4FE3347E6001377F70FB7
:1012E000032684FD93962600B306D600B387F60046
:1012F0002380E7008347E4FE938717002307F4FE6B
:101300000347E4FE93073000E3F0E7F88347F4FE79
:1013100093871700A307F4FE0347F4FE93073000FA
:10132000E3F0E7F613000000130000000324C102FD
:101330001301010367800000130101FD23268102D0
:1013400013040103232EA4FCA30704FE6F00C007AF
:10135000230704FE6F00C0050347E4FE8347F4FE45
:101360008326C4FD131727003387E600B307F70071
:1013700083C70700138607008346E4FE8347F4FE15
:10138000373700401307C7803307C70003470700FC
:101390000326C4FD93962600B306D600B387F60055
:1013A0002380E7008347E4FE938717002307F4FEBA
:1013B0000347E4FE93073000E3F0E7FA8347F4FEC7
:1013C00093871700A307F4FE0347F4FE930730004A
:1013D000E3F0E7F813000000130000000324C1024B
:1013E0001301010367800000130101FD2326810220
:1013F00013040103232EA4FC8327C4FD83C7170015
:10140000A307F4FE8327C4FD03C757008327C4FD49
:10141000A380E7008327C4FD03C797008327C4FD8B
:10142000A382E7008327C4FD03C7D7008327C4FD39
:10143000A384E7008327C4FD0347F4FEA386E700E7
:101440008327C4FD83C72700A307F4FE8327C4FDB9
:1014500003C7A7008327C4FD2381E7008327C4FDBA
:101460000347F4FE2385E7008327C4FD83C7670095
:10147000A307F4FE8327C4FD03C7E7008327C4FD49
:101480002383E7008327C4FD0347F4FE2387E70097
:101490008327C4FD83C73700A307F4FE8327C4FD59
:1014A00003C7F7008327C4FDA381E7008327C4FD9A
:1014B00003C7B7008327C4FDA387E7008327C4FDC4
:1014C00003C777008327C4FDA385E7008327C4FDF6
:1014D0000347F4FEA383E700130000000324C102C6
:1014E0001301010367800000130101FE232E810018
:1014F0001304010293070500A307F4FE8347F4FEDB
:10150000939717009396870193D686418347F4FEFD
:1015100093D7770093F7F70F138707001317370058
:101520003307F74013172700B307F74093F7F70F78
:101530009397870193D78741B3C7F60093978701A5
:1015400093D7874193F7F70F138507000324C10151
:101550001301010267800000130101FD232611021F
:101560002324810213040103232EA4FCA30704FEF9
:101570006F00002A8347F4FE0327C4FD93972700DA
:10158000B307F70083C707002307F4FE8347F4FE81
:101590000327C4FD93972700B307F70003C707008D
:1015A0008347F4FE8326C4FD93972700B387F60094
:1015B00083C71700B347F70013F7F70F8347F4FE0D
:1015C0008326C4FD93972700B387F60083C72700BF
:1015D000B347F70013F7F70F8347F4FE8326C4FDE4
:1015E00093972700B387F60083C73700B347F70008
:1015F000A306F4FE8347F4FE0327C4FD9397270058
:10160000B307F70003C707008347F4FE8326C4FD32
:1016100093972700B387F60083C71700B347F700F7
:101620002306F4FE8347C4FE13850700EFF0DFEBCB
:10163000930705002306F4FE8347F4FE0327C4FD49
:1016400093972700B307F70083C607008347C4FEBC
:10165000138707008347D4FEB347F70013F7F70F4C
:101660008347F4FE33C7E6001377F70F8326C4FDE4
:1016700093972700B387F6002380E7008347F4FEA3
:101680000327C4FD93972700B307F70003C717008C
:101690008347F4FE8326C4FD93972700B387F600A3
:1016A00083C72700B347F7002306F4FE8347C4FE31
:1016B00013850700EFF05FE3930705002306F4FEB0
:1016C0008347F4FE0327C4FD93972700B307F70071
:1016D00083C617008347C4FE138707008347D4FEE1
:1016E000B347F70013F7F70F8347F4FE33C7E6005D
:1016F0001377F70F8326C4FD93972700B387F6006F
:10170000A380E7008347F4FE0327C4FD93972700D7
:10171000B307F70003C727008347F4FE8326C4FD01
:1017200093972700B387F60083C73700B347F700C6
:101730002306F4FE8347C4FE13850700EFF0DFDACB
:10174000930705002306F4FE8347F4FE0327C4FD38
:1017500093972700B307F70083C627008347C4FE8B
:10176000138707008347D4FEB347F70013F7F70F3B
:101770008347F4FE33C7E6001377F70F8326C4FDD3
:1017800093972700B387F6002381E7008347F4FE91
:101790000327C4FD93972700B307F70083C73700DB
:1017A0000347E4FEB3C7E7002306F4FE8347C4FE05
:1017B00013850700EFF05FD3930705002306F4FEBF
:1017C0008347F4FE0327C4FD93972700B307F70070
:1017D00083C637008347C4FE138707008347D4FEC0
:1017E000B347F70013F7F70F8347F4FE33C7E6005C
:1017F0001377F70F8326C4FD93972700B387F6006E
:10180000A381E7008347F4FE93871700A307F4FE44
:101810000347F4FE93073000E3FEE7D41300000013
:10182000130000008320C10203248102130101037D
:1018300067800000130101FD232611022324810289
:10184000232291022320210313040103232EA4FC4D
:10185000232604FE6F0010270327C4FD8327C4FE40
:1018600093972700B307F70083C70700A305F4FE8B
:101870000327C4FD8327C4FE93972700B307F7000F
:1018800083C717002305F4FE0327C4FD8327C4FE86
:1018900093972700B307F70083C72700A304F4FE3C
:1018A0000327C4FD8327C4FE93972700B307F700DF
:1018B00083C737002304F4FE8347B4FE1385070073
:1018C000EFF09FC29307050013850700EFF0DFC11B
:1018D0009307050013850700EFF01FC1930705006C
:1018E00013850700EFF05FC08347A4FE1385070050
:1018F000EFF09FBF9307050013850700EFF0DFBEF1
:101900008347A4FE13850700EFF01FBE9307050071
:1019100013850700EFF05FBD9307050013850700EF
:10192000EFF09FBC9307050013850700EFF0DFBBC6
:10193000834794FE13850700EFF01FBB834794FE97
:1019400013850700EFF05FBA9307050013850700C2
:10195000EFF09FB99307050013850700EFF0DFB89C
:101960009307050013850700EFF01FB8834784FE37
:1019700013850700EFF05FB7834784FE13850700E8
:10198000EFF09FB69307050013850700EFF0DFB572
:10199000834784FE13850700EFF01FB5930705000A
:1019A00013850700EFF05FB4930705001385070068
:1019B000EFF09FB39307050013850700EFF0DFB248
:1019C0008347B4FE13850700EFF01FB293070500AD
:1019D000938407008347B4FE13850700EFF0DFB060
:1019E0009307050013850700EFF01FB0930705006C
:1019F000B3C7F40093F4F70F8347B4FE13850700D1
:101A0000EFF09FAE9307050013850700EFF0DFAD01
:101A10009307050013850700EFF01FAD930705003E
:101A2000B3C7F40093F4F70F8347A4FE13850700B0
:101A3000EFF09FAB93070500138707008347A4FED1
:101A4000B347F70013F9F70F8347A4FE1385070088
:101A5000EFF09FA99307050013850700EFF0DFA8BB
:101A60009307050013850700EFF01FA893070500F3
:101A7000B347F90093F7F70FB3C7F40093F4F70FE8
:101A8000834794FE13850700EFF01FA69307050018
:101A900013850700EFF05FA5930705001387070084
:101AA000834794FEB347F70013F9F70F834794FE7B
:101AB00013850700EFF05FA3930705001385070068
:101AC000EFF09FA29307050013850700EFF0DFA159
:101AD00093070500B347F90093F7F70FB3C7F40076
:101AE00093F4F70F834784FE13850700EFF0DF9F21
:101AF0009307050013850700EFF01F9F930705006C
:101B000013850700EFF05F9E93070500138707001A
:101B1000834784FEB347F70093F7F70FB3C7F4008A
:101B200013F7F70F8326C4FD8327C4FE939727007E
:101B3000B387F6002380E7008347B4FE13850700D0
:101B4000EFF09F9A8347B4FE13850700EFF0DF990B
:101B50009307050013850700EFF01F998347B4FE34
:101B600013850700EFF05F989307050013850700C2
:101B7000EFF09F979307050013850700EFF0DF96BE
:101B80009307050013850700EFF01F968347A4FE17
:101B900013850700EFF05F95930705001385070095
:101BA000EFF09F949307050013850700EFF0DF9394
:101BB0009307050013850700EFF01F93834794FEFA
:101BC00013850700EFF05F92930705001385070068
:101BD000EFF09F91834794FE13850700EFF0DF90AD
:101BE0009307050013850700EFF01F90930705008A
:101BF00013850700EFF05F8F93070500138507003B
:101C0000EFF09F8E834784FE13850700EFF0DF8D92
:101C1000834784FE13850700EFF01F8D93070500AF
:101C200013850700EFF05F8C93070500138507000D
:101C3000EFF09F8B9307050013850700EFF0DF8A15
:101C40008347B4FE13850700EFF01F8A9307050052
:101C500013850700EFF05F899307050013850700E0
:101C6000EFF09F8893070500138707008347B4FEB2
:101C7000B347F70093F4F70F8347A4FE13850700DB
:101C8000EFF09F8693070500138907008347A4FEA2
:101C900013850700EFF05F859307050013850700A4
:101CA000EFF09F8493070500B347F90013F9F70F8E
:101CB0008347A4FE13850700EFF01F8393070500F9
:101CC00013850700EFF05F82930705001385070077
:101CD000EFF09F8193070500B347F90093F7F70FE3
:101CE000B3C7F40093F4F70F834794FE13850700FE
:101CF000EFF08FFF9307050013870700834794FEDB
:101D0000B347F70013F9F70F834794FE13850700D5
:101D1000EFF08FFD9307050013850700EFF0CFFC70
:101D20009307050013850700EFF00FFC93070500EC
:101D3000B347F90093F7F70FB3C7F40093F4F70F25
:101D4000834784FE13850700EFF00FFA9307050021
:101D500013850700EFF04FF993070500138707007D
:101D6000834784FEB347F70013F9F70F834784FED8
:101D700013850700EFF04FF7930705001385070061
:101D8000EFF08FF69307050013850700EFF0CFF50E
:101D900093070500B347F90093F7F70FB3C7F400B3
:101DA00013F7F70F8326C4FD8327C4FE93972700FC
:101DB000B387F600A380E7008347B4FE13850700CE
:101DC000EFF08FF28347B4FE13850700EFF0CFF1F9
:101DD0009307050013850700EFF00FF19307050047
:101DE00013850700EFF04FF09307050013850700F8
:101DF000EFF08FEF8347A4FE13850700EFF0CFEEDF
:101E00008347A4FE13850700EFF00FEE930705004C
:101E100013850700EFF04FED8347A4FE13850700FD
:101E2000EFF08FEC9307050013850700EFF0CFEB81
:101E30009307050013850700EFF00FEB93070500EC
:101E400013850700EFF04FEA834794FE13850700E0
:101E5000EFF08FE99307050013850700EFF0CFE857
:101E60009307050013850700EFF00FE893070500BF
:101E700013850700EFF04FE7834784FE13850700C3
:101E8000EFF08FE69307050013850700EFF0CFE52D
:101E9000834784FE13850700EFF00FE593070500E5
:101EA00013850700EFF04FE4930705001385070043
:101EB000EFF08FE39307050013850700EFF0CFE203
:101EC0008347B4FE13850700EFF00FE29307050088
:101ED00013850700EFF04FE1930705001387070014
:101EE0008347B4FEB347F70093F4F70F8347B4FE7C
:101EF00013850700EFF04FDF9307050013850700F8
:101F0000EFF08FDE9307050013850700EFF0CFDDBC
:101F100093070500B3C7F40093F4F70F8347A4FEBB
:101F200013850700EFF04FDC9307050013850700CA
:101F3000EFF08FDB9307050013850700EFF0CFDA92
:101F400093070500138707008347A4FEB347F700F4
:101F500093F7F70FB3C7F40093F4F70F834794FE9A
:101F600013850700EFF04FD893070500138907008A
:101F7000834794FE13850700EFF00FD79307050002
:101F800013850700EFF04FD693070500B347F9001C
:101F900013F9F70F834794FE13850700EFF0CFD4B2
:101FA0009307050013850700EFF00FD49307050092
:101FB00013850700EFF04FD393070500B347F900EF
:101FC00093F7F70FB3C7F40093F4F70F834784FE3A
:101FD00013850700EFF04FD1930705001387070023
:101FE000834784FEB347F70013F9F70F834784FE56
:101FF00013850700EFF04FCF930705001385070007
:10200000EFF08FCE9307050013850700EFF0CFCDDB
:1020100093070500B347F90093F7F70FB3C7F40030
:1020200013F7F70F8326C4FD8327C4FE9397270079
:10203000B387F6002381E7008347B4FE13850700CA
:10204000EFF08FCA9307050013850700EFF0CFC9A3
:102050008347B4FE13850700EFF00FC9930705000F
:1020600013850700EFF04FC893070500138507009D
:10207000EFF08FC79307050013850700EFF0CFC679
:102080008347A4FE13850700EFF00FC68347A4FE25
:1020900013850700EFF04FC5930705001385070070
:1020A000EFF08FC49307050013850700EFF0CFC34F
:1020B0009307050013850700EFF00FC3834794FED5
:1020C00013850700EFF04FC2834794FE1385070086
:1020D000EFF08FC19307050013850700EFF0CFC025
:1020E000834794FE13850700EFF00FC093070500A8
:1020F00013850700EFF04FBF930705001385070016
:10210000EFF08FBE9307050013850700EFF0CFBDFA
:10211000834784FE13850700EFF00FBD930705008A
:1021200013850700EFF04FBC9307050013850700E8
:10213000EFF08FBB9307050013850700EFF0CFBAD0
:102140008347B4FE13850700EFF00FBA930705002D
:10215000138707008347B4FEB347F70093F4F70FE4
:102160008347B4FE13850700EFF00FB8930705000F
:1021700013850700EFF04FB793070500138507009D
:10218000EFF08FB693070500B3C7F40093F4F70F91
:102190008347A4FE13850700EFF00FB593070500F2
:1021A00013850700EFF04FB493070500138707006E
:1021B0008347A4FEB347F70013F9F70F8347A4FE44
:1021C00013850700EFF04FB2930705001385070052
:1021D000EFF08FB19307050013850700EFF0CFB044
:1021E00093070500B347F90093F7F70FB3C7F4005F
:1021F00093F4F70F834794FE13850700EFF0CFAEFB
:102200009307050013850700EFF00FAE9307050055
:1022100013850700EFF04FAD930705001387070004
:10222000834794FEB347F70093F7F70FB3C7F40063
:1022300093F4F70F834784FE13850700EFF0CFAACE
:102240009307050013890700834784FE1385070061
:10225000EFF08FA99307050013850700EFF0CFA8D3
:1022600093070500B347F90013F9F70F834784FE7E
:1022700013850700EFF04FA79307050013850700AC
:10228000EFF08FA69307050013850700EFF0CFA5A9
:1022900093070500B347F90093F7F70FB3C7F400AE
:1022A00013F7F70F8326C4FD8327C4FE93972700F7
:1022B000B387F600A381E7008327C4FE9387170046
:1022C0002326F4FE0327C4FE9307300063D6E7D825
:1022D00013000000130000008320C10203248102C8
:1022E00083244102032901021301010367800000D6
:1022F000130101FD2326810213040103232EA4FCF4
:10230000A30704FE6F00C007230704FE6F00C0058B
:102310000347E4FE8347F4FE8326C4FD131727001A
:102320003387E600B307F70083C70700138607006B
:102330008346E4FE8347F4FE373700401307C79017
:102340003307C700034707000326C4FD9396260002
:10235000B306D600B387F6002380E7008347E4FE88
:10236000938717002307F4FE0347E4FE930730002A
:10237000E3F0E7FA8347F4FE93871700A307F4FE20
:102380000347F4FE93073000E3F0E7F81300000082
:10239000130000000324C102130101036780000041
:1023A000130101FD2326810213040103232EA4FC43
:1023B0008327C4FD83C7D700A307F4FE8327C4FD8A
:1023C00003C797008327C4FDA386E7008327C4FDC6
:1023D00003C757008327C4FDA384E7008327C4FDF8
:1023E00003C717008327C4FDA382E7008327C4FD2A
:1023F0000347F4FEA380E7008327C4FD83C72700BB
:10240000A307F4FE8327C4FD03C7A7008327C4FDE9
:102410002381E7008327C4FD0347F4FE2385E700FB
:102420008327C4FD83C76700A307F4FE8327C4FD89
:1024300003C7E7008327C4FD2383E7008327C4FD88
:102440000347F4FE2387E7008327C4FD83C73700D3
:10245000A307F4FE8327C4FD03C777008327C4FDC9
:10246000A381E7008327C4FD03C7B7008327C4FD0A
:10247000A383E7008327C4FD03C7F7008327C4FDB8
:10248000A385E7008327C4FD0347F4FEA387E70085
:10249000130000000324C102130101036780000040
:1024A000130101FD232611022324810213040103D9
:1024B000232EA4FC232CB4FCA30704FE032684FDD6
:1024C0008325C4FD13050000EFE05FD993071000DA
:1024D000A307F4FE6F00C0030325C4FDEFE0DFE5B2
:1024E0000325C4FDEFE05FF00325C4FDEFF0CF86C8
:1024F0008347F4FE032684FD8325C4FD138507006E
:10250000EFE0DFD58347F4FE93871700A307F4FEBF
:102510000347F4FE93079000E3F0E7FC0325C4FDB6
:10252000EFE09FE10325C4FDEFE01FEC032684FDEF
:102530008325C4FD1305A000EFE05FD21300000067
:102540008320C1020324810213010103678000007C
:10255000130101FD23261102232481021304010328
:10256000232EA4FC232CB4FCA30704FE032684FD25
:102570008325C4FD1305A000EFE05FCE9307900014
:10258000A307F4FE6F00C0030325C4FDEFF05FE175
:102590000325C4FDEFF0DFD58347F4FE032684FD59
:1025A0008325C4FD13850700EFE05FCB0325C4FD41
:1025B000EFF04FA88347F4FE9387F7FFA307F4FEDD
:1025C0008347F4FEE39207FC0325C4FDEFF05FDDD3
:1025D0000325C4FDEFF0DFD1032684FD8325C4FD70
:1025E00013050000EFE09FC7130000008320C10225
:1025F000032481021301010367800000130101FE1F
:10260000232E1100232C8100130401022326A4FE93
:102610002324B4FE8327C4FE93850700032584FE8C
:10262000EFF01FE8130000008320C10103248101A3
:102630001301010267800000130101FE232E110027
:10264000232C8100130401022326A4FE2324B4FEBC
:102650008327C4FE93850700032584FEEFF05FEF18
:10266000130000008320C101032481011301010232
:04267000678000007F
:10267400600000002003000070000000F002000071
:10268400020000000D0200000C000000EC0100003C
:102694000800000046000000100000004000000098
:1026A40002000000300000000800000028000000C4
:1026B40008000000B800000010000000B000000096
:1026C4000200000082000000060000007E000000FE
:1026D4000A0D2D2D2D2D2D2D2D2D2D2D2D2D2D2D69
:1026E4002D2D2D2D2D2D2D2D2D0A000009456E6328
:1026F400727970745F6563620D0A00000A0000005D
:102704000D0A706C61696E20746578743A0D0A0064
:102714000D0A6B65793A0D0A000000000D0A636921
:1027240070686572746578743A0D0A000D0A46691A
:102734006E697368210A00002B7E151628AED2A696
:10274400ABF7158809CF4F3C6BC1BEE22E409F9674
:10275400E93D7E117393172A45434220656E6372E7
:102764007970743A20000000535543434553532174
:102774000A0000004641494C555245210A00000018
:102784003AD77BB40D7A3660A89ECAF32466EF97D5
:1027940045434220656E6372797074207363616E81
:1027A4003A0D0A000D0A000060000000200300003A
:1027B40070000000F0020000020000000D020000A2
:1027C4000C000000EC0100000800000046000000BE
:1027D4001000000040000000020000003000000073
:1027E400080000002800000008000000B8000000F5
:1027F40010000000B0000000020000008200000091
:10280400060000007E000000637C777BF26B6FC5DE
:102814003001672BFED7AB76CA82C97DFA5947F0DF
:10282400ADD4A2AF9CA472C0B7FD9326363FF7CCBB
:1028340034A5E5F171D8311504C723C31896059A58
:10284400071280E2EB27B27509832C1A1B6E5AA07B
:10285400523BD6B329E32F8453D100ED20FCB15B66
:102864006ACBBE394A4C58CFD0EFAAFB434D3385CF
:1028740045F9027F503C9FA851A3408F929D38F5A3
:10288400BCB6DA2110FFF3D2CD0C13EC5F974417DA
:10289400C4A77E3D645D197360814FDC222A908851
:1028A40046EEB814DE5E0BDBE0323A0A4906245CDD
:1028B400C2D3AC629195E479E7C8376D8DD54EA942
:1028C4006C56F4EA657AAE08BA78252E1CA6B4C60E
:1028D400E8DD741F4BBD8B8A703EB5664803F60E67
:1028E400613557B986C11D9EE1F8981169D98E9456
:1028F4009B1E87E9CE5528DF8CA1890DBFE642686F
:1029040041992D0FB054BB1652096AD53036A538FB
:10291400BF40A39E81F3D7FB7CE339829B2FFF87C3
:10292400348E4344C4DEE9CB547B9432A6C2233DA7
:10293400EE4C950B42FAC34E082EA16628D924B258
:10294400765BA2496D8BD12572F8F6648668981679
:10295400D4A45CCC5D65B6926C704850FDEDB9DAD8
:102964005E154657A78D9D8490D8AB008CBCD30AC6
:10297400F7E45805B8B34506D02C1E8FCA3F0F02A2
:10298400C1AFBD0301138A6B3A9111414F67DCEA71
:1029940097F2CFCEF0B4E67396AC7422E7AD3585EA
:1029A400E2F937E81C75DF6E47F11A711D29C589F4
:1029B4006FB7620EAA18BE1BFC563E4BC6D27920D6
:1029C4009ADBC0FE78CD5AF41FDDA8338807C731DF
:1029D400B11210592780EC5F60517FA919B54A0DD7
:1029E4002DE57A9F93C99CEFA0E03B4DAE2AF5B04C
:1029F400C8EBBB3C83539961172B047EBA77D62668
:102A0400E169146355210C7D8D01020408102040F6
:032A1400801B36EE
:0200000480007A
:100000006F00400B130000001300000013000000FD
:100010001300000013000000130000001300000094
:10002000232E11FE232C51FE232A61FE232871FE6C
:100030002326A1FE2324B1FE2322C1FE2320D1FECC
:10004000232EE1FC232CF1FC232A01FD232811FDA2
:100050002326C1FD2324D1FD2322E1FD2320F1FD30
:10006000130101FC970000C0E780402E8320C103EC
:100070008322810303234103832301030325C10258
:100080008325810203264102832601020327C10141
:10009000832781010328410183280101032EC10028
:1000A000832E8100032F4100832F010013010104DF
:1000B00073002030973100C0938141161711000062
:1000C00013014188173500C013054595973500C0C9
:1000D0009385C5946308B5002320050013054500EA
:1000E0006FF05FFF173500C0130545931301C1FF83
:1000F000973500C093858592630EB5008326050071
:10010000130545002320A100E78006000325010018
:100110006FF01FFE1301410037150000130505881D
:1001200073104530372500001305858073100530A6
:0C013000970000C0E780C01A6F000000BC
:040000058000000077
:00000001FF
