:0200000480007A
:100000006F00000B1300000013000000130000003D
:100010001300000013000000130000001300000094
:10002000232E11FE232C51FE232A61FE232871FE6C
:100030002326A1FE2324B1FE2322C1FE2320D1FECC
:10004000232EE1FC232CF1FC232A01FD232811FDA2
:100050002326C1FD2324D1FD2322E1FD2320F1FD30
:10006000130101FCEF00C0298320C1038322810317
:1000700003234103832301030325C1028325810256
:1000800003264102832601020327C1018327810140
:100090000328410183280101032EC100832E810022
:1000A000032F4100832F010013010104730020304E
:1000B00097210000938101BE1381010117150000F3
:1000C0001305453D938501816308B5002320050094
:1000D000130545006FF05FFF171500001305853B02
:1000E0001301C1FF971500009385C53A630EB50053
:1000F00083260500130545002320A100E7800600A4
:10010000032501006FF01FFE13014100EF10800E68
:040110006F0000007C
:10011400B70701F01307400123A4E7001307700099
:1001240023A6E70067800000B70701F003A5470096
:100134001355850167800000130101FF2326110078
:10014400EFF09FFEE30E05FEB70701F003A50700DD
:100154008320C1001375F50F1301010167800000AE
:10016400B70701F003A54700135505011375F50FF3
:1001740067800000130101FF23248100232611005E
:1001840013040500EFF0DFFDE30E05FEB70701F0F1
:100194008320C10023A087000324810013010101EF
:1001A40067800000130101FF232481009357450059
:1001B40093564540232611001307900013040500AD
:1001C400138577056344D70013850703EFF09FFA7F
:1001D4001374F400930790001305040363F4870079
:1001E40013057405032481008320C1001301010158
:1001F4006FF05FF8130101FF232481002322910093
:10020400232611001304050093040501034504008B
:1002140013041400EFF01FF9E31A94FE8320C100C5
:10022400032481008324410013010101678000003D
:10023400B71700809387472603A6070083A64700C5
:1002440003A7870083A7C700130101F2232C810CA5
:10025400232A910C232E110C2320C1002322D10028
:100264002324E1002326F100130401019304010275
:10027400EFF09FEC2300A40013041400E39A84FE1F
:1002840013050101EFF01FF713050100EFF09FF6CE
:100294009305010013850400EF00D060930501016C
:1002A40013850400EF00506013050101EFF09FF483
:1002B4008320C10D0324810D8324410D1301010EFC
:1002C40067800000130101FF23248100232611000D
:1002D4001304050003450500630A05001304140014
:1002E400EFF05FE903450400E31A05FE8320C10033
:1002F400032481001301010167800000F3251034F9
:1003040073263034F3262034B717008003A7074937
:100314006312070223A6B18037170080232CC74835
:1003240037170080232AD7481307100023A8E7486B
:10033400730010006F000000B70702F003A58704E4
:1003440067800000130101FEB347B500232C810030
:100354002328210123263101232E1100232A910071
:1003640093F7370093090500138405003309C5008A
:10037400639007109307300063FCC70E13773500B2
:1003840093070500631007061377C9FF930607FE5A
:1003940063E4D70863F6E7029304F7FFB384F440F9
:1003A40093F4C4FF93844400930504001385070069
:1003B40013860400EF005051B307950033049400F2
:1003C40063EC270B8320C1010324810183244101B1
:1003D40003290101138509008329C10013010102C6
:1003E40067800000834604009387170013F73700E3
:1003F400A38FD7FE13041400E30807F88346040010
:100404009387170013F73700A38FD7FE1304140044
:10041400E31A07FC6FF05FF7032F0400832E4400F8
:10042400032E84000323C400832804010328440109
:10043400032584018325C40103260402938747020C
:1004440023AEE7FD23A0D7FF23A2C7FF23A467FEA3
:1004540023A617FF23A807FF23AAA7FE23ACB7FEF2
:1004640023AEC7FE13044402E3E8D7FA6FF09FF209
:1004740093870900E3F829F5138717001306100082
:100484006378E9029305040013850700EF00D04365
:100494008320C10103248101832441010329010133
:1004A400138509008329C10013010102678000003C
:1004B4003306F9409305040013850700EF00D0408C
:1004C4006FF01FFDB367B50093F73700639E070213
:1004D4001378C6FF33080501637805039307050005
:1004E4006F000001938747009385450063F8070177
:1004F40083A6070003A70500E386E6FE3385A7402D
:100504003306A640138507003386C5006F004001FB
:1005140003C705008347F5FF93851500639AE70039
:1005240013051500E396C5FE13050000678000005F
:100534003385E7406780000093073500130101FD10
:10054400B387B74023268102232491022322210367
:1005540023203103232E4101232C5101232A61013D
:100564002328710123268101232491012322A1013F
:1005740093B7770063920718B367B50093F7370012
:10058400639C071683A705002320F50083A7450075
:100594002322F50083A785002324F50083A7C50043
:1005A4002326F50037160080834A350083497500F9
:1005B4000349B500034EF500034B25008344650051
:1005C4000344A5000343E50083431500834255001B
:1005D400834F95008348D500834B0500034F4500A6
:1005E400834E85000348C5009305400013050501AB
:1005F40013064628130AC0026F00800983470D10B2
:1006040083CC0C00034C0C0083C606000347070090
:10061400B3C79701B3C77701334C7C00B346DB0003
:100624003347570193F7F70F137CFC0F93F6F60F3C
:100634001377F70F2300F500A30085012301D500EC
:10064400A301E50093851500938A0900138B040028
:10065400930909009304040093830200930B0F0091
:1006640093820F00138F0E0013090E00130403006E
:10067400938F0800930E0800130545006384450515
:100684001388070093080C0013830600130E070059
:1006940093D72500330DF60093F73500B30C1601FC
:1006A400330C6600B306C60133070601E38807F47A
:1006B40013070E0093060300138C08009307080029
:1006C4006FF05FF50324C1028324810203294102F0
:1006D40083290102032AC101832A8101032B4101D9
:1006E400832B0101032CC100832C8100032D4100C5
:1006F400130101036780000083C705002300F50090
:1007040083C71500A300F50083C725002301F50066
:1007140083C73500A301F50083C745002302F50014
:1007240083C75500A302F50083C765002303F500C2
:1007340083C77500A303F50083C785002304F50070
:1007440083C79500A304F50083C7A5002305F5001E
:1007540083C7B500A305F50083C7C5002306F500CC
:1007640083C7D500A306F50083C7E5002307F5007A
:1007740083C7F500A307F5006FF0DFE2131545000A
:100784001375F50F3306A6008347060003C705005B
:1007940003C5450083C68500B3C7E7002380F50081
:1007A4008347460003C7C50003CE1500B3C7A7009F
:1007B4002382F5008347860003C3950083C8D500D0
:1007C400B3C7D7002384F5008347C60003C82500B8
:1007D40003C56500B3C7E7002386F5008347160009
:1007E40083C6A50003C7E500B3C7C701A380F5000E
:1007F40083479600B3C76700A384F5008347D600F8
:10080400B3C71701A386F50083472600B3C70701C2
:100814002381F50083476600B3C7A7002383F5004F
:100824008347A600B3C7D7002385F5008347E600B6
:10083400B3C7E7002387F5008347360003C73500B5
:1008440003C8750003C5B500B3C7E700A381F5006D
:100854008347760083C6F50003C75500B3C7070175
:10086400A383F5008347B600B3C7A700A385F500AB
:100874008347F600B3C7D700A387F5008347560024
:10088400B3C7E700A382F50067800000834F05002B
:10089400034F4500834E8500034EC50003431500F6
:1008A40083485500034895008345D5000346250039
:1008B400834665000347A500B71700809387472840
:1008C400B38FF701338FE701B38ED701338EC7019E
:1008D40033836700B388170133880701B385B700F2
:1008E4003386C700B386D7000348080083C50500D4
:1008F4000346060083C6060083CF0F00034F0F0094
:1009040083CE0E00034E0E000343030083C8080089
:100914003387E70003470700A3040501A306B500D6
:100924002301C5002303D5002300F5012302E501BB
:100934002304D5012306C501A3006500A302150104
:100944002305E5008345E50003463500834675002D
:100954000347B5000348F500B385B7003386C700E5
:10096400B386D7003387E700B387070183C5050043
:100974000346060083C606000347070083C7070033
:100984002307B500A301C500A303D500A305E50013
:10099400A307F50067800000034E1500834F550040
:1009A400034F9500834ED500834825000343A500DB
:1009B400834565000348E500834735000346F50099
:1009C4008346B50003477500A300F501A302E501C2
:1009D400A304D501A306C501230165002305150160
:1009E400230305012307B500A301C500A307D50010
:1009F400A305E500A303F500678000001357750005
:100A040093173700B387E74093972700B387E740EE
:100A14001315150033C5A7001375F50F6780000083
:100A2400130101FE232E1100232C8100232A91009F
:100A3400232061012328210123263101232441019C
:100A440023225101834A3500034A05000349250046
:100A5400834915001304050033CB2A0133C549012A
:100A6400B344AB00EFF09FF9B3C744013345F5003D
:100A74002300A40033453901EFF05FF8B3C9340112
:100A840033453501A300A40013050B00EFF01FF755
:100A940033C92401334525012301A40033C54A0188
:100AA400EFF0DFF5034B4400034A540003496400AC
:100AB40083497400B3C45401B3479500A301F400FF
:100AC400B344390133454B01B34A9500EFF01FF3AA
:100AD400B3475B013345F5002302A40033452A01E3
:100AE400EFF0DFF1334A5A0133454501A302A40074
:100AF40013850400EFF09FF0334959013345250174
:100B04002303A40033453B01EFF05FEF034B840064
:100B1400034994008344A400034AB400B3C95901AF
:100B2400B3473501A303F400B3C9440133452B0192
:100B3400B34A3501EFF09FECB3475B013345F50051
:100B44002304A40033459900EFF05FEB33495901C6
:100B540033452501A304A40013850900EFF01FEA1F
:100B6400B3C45401334595002305A40033454B0118
:100B7400EFF0DFE8034BC4008349D4000349E400E9
:100B84008344F400334A5A01B3474501B34A9900F8
:100B940033C56901A305F400334A5501EFF01FE69C
:100BA400B3474B013345F5002306A40033C529019F
:100BB400EFF0DFE4B3C9490133453501A306A400CE
:100BC40013850A00EFF09FE33349490133452501BA
:100BD4002307A40033C56401EFF05FE2B3C444010A
:100BE40033459500A307A4008320C1010324810198
:100BF40083244101032901018329C100032A8100BF
:100C0400832A4100032B01001301010267800000C5
:100C1400130101FA9307050123206105232E110412
:100C2400232C8104232A910423282105232631051A
:100C34002324410523225105232E7103232C8103F0
:100C4400232A91032328A1032326B103130B0500B0
:100C5400232EF100034D0B00834C1B00834B2B0010
:100C640013050D00EFF09FD9232CA100EFF01FD93D
:100C740093090500EFF09FD81307050013850C00B6
:100C8400232AE100EFF09FD72328A100EFF01FD71C
:100C9400930A0500EFF09FD69307050013850B0018
:100CA4002326F100034C3B00EFF05FD5130405004D
:100CB400EFF0DFD413090500EFF05FD493040500CF
:100CC40013050C00EFF09FD3130A0500EFF01FD3B8
:100CD400930D0500EFF09FD2032741010328810102
:100CE400832501018327C10033433801B348B7008A
:100CF400B3C6E9003348E800B3C81A0133476700B4
:100D0400B3C6D700B3C5E50033C71701B346D40053
:100D1400B3CA0A013344E400B3CA570133C484009C
:100D2400B3C7B7003346F900B346D900B3C78D0043
:100D3400B3CA5401B34A5A01B347F500B3C6D40049
:100D4400B347FD0033C7C400334ADA00B3CD5D01B5
:100D54003347E500334A4501B3C7FB003345B501CA
:100D6400B347FC0033C7EC00334A4D01334DAD00AB
:100D740033C7EB0033CA4C01A300FB00B3CCAC0176
:100D84008327C1013347EC00B3CB9B01334C4C01A7
:100D94002300EB0023018B01A3017B01130B4B0008
:100DA400E39A67EB8320C10503248105832441056D
:100DB400032901058329C104032A8104832A4104E8
:100DC400032B0104832BC103032C8103832C4103D4
:100DD400032D0103832DC102130101066780000066
:100DE400834F0500034F4500834E8500034EC50025
:100DF4000343150083485500034895008345D500F7
:100E040003462500834665000347A500B717008005
:100E140093874728B38FF701338FE701B38ED70148
:100E2400338EC70133836700B38817013388070102
:100E3400B385B7003386C700B386D7000348C8100C
:100E440083C5C5100346C61083C6C61083CFCF1012
:100E5400034FCF1083CECE10034ECE100343C310E6
:100E640083C8C8103387E7000347C710A3040501EC
:100E7400A306B5002301C5002303D5002300F50113
:100E84002302E5012304D5012306C501A30065005F
:100E9400A30215012305E5008345E500034635005B
:100EA400834675000347B5000348F500B385B700D2
:100EB4003386C700B386D7003387E700B3870701BB
:100EC40083C5C5100346C61083C6C6100347C710A2
:100ED40083C7C7102307B500A301C500A303D5002A
:100EE400A305E500A307F50067800000034ED500C5
:100EF400834F9500034F5500834E1500834825000A
:100F04000343A500834565000348E5008347350096
:100F1400034675008346B5000347F500A306F501B3
:100F2400A304E501A302D501A300C50123016500C3
:100F340023051501230305012307B500A301C500FB
:100F4400A303D500A305E500A307F500678000000F
:100F5400130101FE232C8100232A9100232821015F
:100F640023263101232E1100B70700F013071000C8
:100F740013860500930405001389050023A2E700E6
:100F84009305050013050000EFF04FFF1304100054
:100F94009309A00013850400EFF05F8F138504000C
:100FA400EFF09F9F13850400EFF09FA71305040043
:100FB4001304140013060900938504001374F40F3A
:100FC400EFF0CFFBE31834FD13850400EFF01F8C22
:100FD40013850400EFF05F9C130609009385040059
:100FE4001305A000EFF08FF98320C10103248101D0
:100FF400B70700F023A2070083244101032901015C
:101004008329C1001301010267800000130101FF5D
:101014002322910023202101138605009304050057
:1010240013890500930505001305A00023248100FE
:101034002326110013049000EFF04FF413850400ED
:10104400EFF0DFEA13850400EFF09FD913050400E5
:101054001306090093850400EFF04FF21304F4FF24
:10106400138504001374F40FEFF09FBAE31804FC23
:1010740013850400EFF09FE713850400EFF05FD6BB
:10108400032481008320C100130609009385040012
:101094000329010083244100130500001301010109
:1010A4006FF0CFED6FF04FC993070500138505006E
:1010B400938507006FF0DFE99307050013850500AA
:1010C400938507006FF09FF4B347B50093F737009B
:1010D400B308C500639607069307300063F2C7069A
:1010E4009377350013070500639A070C13F6C8FFBE
:1010F400B306E640930700029302000263C2D706D8
:1011040093860500930707006378C70203A80600C7
:10111400938747009386460023AE07FFE3E8C7FEA4
:101124009307F6FFB387E74093F7C7FF938747001A
:101134003307F700B385F500636817016780000083
:1011440013070500E37C15FF83C705001307170089
:1011540093851500A30FF7FEE36817FF678000006F
:1011640083A6450083A7C50183AF050003AF8500AF
:1011740083AEC50003AE050103A3450103A88501A1
:101184002322D70083A605022320F7012324E701A5
:101194002326D7012328C701232A6700232C07010C
:1011A400232EF70013074702B307E640232ED7FE8A
:1011B40093854502E3C6F2FA6FF09FF483C60500F7
:1011C4001307170093773700A30FD7FE93851500F5
:1011D400E38E07F083C605001307170093773700E3
:1011E400A30FD7FE93851500E39A07FC6FF01FF059
:1011F400130101FE232C810037040100B70700F01E
:10120400232E11001307F4FF23A4E70023A20700F1
:1012140013050100EFE0DFEFB70702F09306F0FFDC
:101224001304140023A2D70423A0870437544C00CA
:10123400130404B41304F4FFEFE09FFFE31C04FE63
:101244003715008013058527EFF0CF878320C10170
:1012540003248101130500001301010267800000CB
:101264002B7E151628AED2A6ABF7158809CF4F3CB6
:101274000000000046696E697368210D0A000000D1
:10128400637C777BF26B6FC53001672BFED7AB763F
:10129400CA82C97DFA5947F0ADD4A2AF9CA472C0EA
:1012A400B7FD9326363FF7CC34A5E5F171D8311557
:1012B40004C723C31896059A071280E2EB27B27578
:1012C40009832C1A1B6E5AA0523BD6B329E32F84F0
:1012D40053D100ED20FCB15B6ACBBE394A4C58CFE8
:1012E400D0EFAAFB434D338545F9027F503C9FA8BC
:1012F40051A3408F929D38F5BCB6DA2110FFF3D28A
:10130400CD0C13EC5F974417C4A77E3D645D19733D
:1013140060814FDC222A908846EEB814DE5E0BDB37
:10132400E0323A0A4906245CC2D3AC629195E4796E
:10133400E7C8376D8DD54EA96C56F4EA657AAE08C8
:10134400BA78252E1CA6B4C6E8DD741F4BBD8B8A63
:10135400703EB5664803F60E613557B986C11D9EC9
:10136400E1F8981169D98E949B1E87E9CE5528DF40
:101374008CA1890DBFE6426841992D0FB054BB166C
:101384008D01020408102040801B360052096AD5E2
:101394003036A538BF40A39E81F3D7FB7CE3398266
:1013A4009B2FFF87348E4344C4DEE9CB547B9432B5
:1013B400A6C2233DEE4C950B42FAC34E082EA166FD
:1013C40028D924B2765BA2496D8BD12572F8F664D4
:1013D40086689816D4A45CCC5D65B6926C7048504F
:1013E400FDEDB9DA5E154657A78D9D8490D8AB0004
:1013F4008CBCD30AF7E45805B8B34506D02C1E8F2D
:10140400CA3F0F02C1AFBD0301138A6B3A91114168
:101414004F67DCEA97F2CFCEF0B4E67396AC742251
:10142400E7AD3585E2F937E81C75DF6E47F11A71CF
:101434001D29C5896FB7620EAA18BE1BFC563E4B08
:10144400C6D279209ADBC0FE78CD5AF41FDDA833CA
:101454008807C731B11210592780EC5F60517FA90A
:1014640019B54A0D2DE57A9F93C99CEFA0E03B4D39
:10147400AE2AF5B0C8EBBB3C83539961172B047EAD
:0C148400BA77D626E169146355210C7D6F
:040000058000000077
:00000001FF
